:020000040800F2
:10000000F80E0020350200082B300008FB2D0008F8
:1000100029300008C71B0008413400080000000018
:100020000000000000000000000000002F30000869
:10003000C91B0008000000002D30000891300008A6
:100040004F0200084F0200084F0200084F0200084C
:100050004F0200084F0200084F020008CB1B0008A7
:100060004F0200084F0200084F0200084F0200082C
:100070004F0200084F0200084F0200084F0200081C
:100080004F0200084F0200084F0200084F0200080C
:100090004F0200084F0200084F0200084F020008FC
:1000A0004F0200084F0200084F0200084F020008EC
:1000B000F5300008013100084F0200084F02000827
:1000C0004F0200084F0200084F0200084F020008CC
:1000D0004F020008353400084F0200084F020008A4
:1000E0004F0200084F0200084F02000800F002F81B
:1000F00000F090F80AA090E8000C82448344AAF132
:100100000107DA4501D100F085F8AFF2090EBAE82F
:100110000F0013F0010F18BFFB1A43F0010318473B
:10012000C43E0000E43E0000103A24BF78C878C105
:10013000FAD8520724BF30C830C144BF04680C60ED
:10014000704700000023002400250026103A28BF35
:1001500078C1FBD8520728BF30C148BF0B60704739
:100160006E2900F09B81702900F0E582662903F07A
:10017000A286652903F09F86672903F09C86612982
:1001800003F09B8603681B0A28BF41F080016929A0
:1001900000F04881642900F04581752900F0428112
:1001A0006F2900F07282782900F0B182E92900F00D
:1001B0000D82E42900F00A82F52900F00782EF2978
:1001C00000F06F82F82900F0B0820368DB0928BFD5
:1001D00041F08001632900F0B387732900F0B887EC
:1001E000E32900F0C387F32900F0C8870020704797
:1001F0001FB501F015F804000020002103F07AFB80
:10020000401C60600020002103F05EFBE0601FBD29
:1002100010B510BD00F0D6FF1146FFF7E9FF03F05F
:10022000FBF901F0B3F803B4FFF7F2FF03BC01F0F0
:10023000FBF800000948804709480047FEE7FEE751
:10024000FEE7FEE7FEE7FEE7FEE7FEE7FEE7FEE786
:1002500004480549054A064B70470000F330000882
:10026000ED000008F8080020F80E0020F80A002031
:10027000F80A00207CB51D4616460C00009001D0FF
:100280002044401E074B7B442A4669460190304675
:1002900000F01DF905461CB10020694600F02AF95E
:1002A00028467CBD7502000010B5203AC0F00B80D6
:1002B000B1E81850203AA0E81850B1E81850A0E86A
:1002C0001850BFF4F5AF5FEA027C24BFB1E81850C4
:1002D000A0E8185044BF18C918C0BDE810405FEA34
:1002E000827C24BF51F8043B40F8043B08BF7047B0
:1002F000D20728BF31F8023B48BF11F8012B28BFB5
:1003000020F8023B48BF00F8012B70474FF0000275
:1003100000B5134694469646203922BFA0E80C50FB
:10032000A0E80C50B1F12001BFF4F7AF090728BFD6
:10033000A0E80C5048BF0CC05DF804EB890028BF52
:1003400040F8042B08BF704748BF20F8022B11F07B
:10035000804F18BF00F8012B7047704770477047F7
:1003600070B5044685690068C10601D5302600E0F5
:100370002026C00707D070BDD4E901213046904740
:10038000206A401C20626D1EF6D570BD70B5044613
:1003900085690078C00707D170BDD4E9012120200C
:1003A0009047206A401C20626D1EF6D570BD09681A
:1003B0004A0501D540B27047C905FCD500B2704767
:1003C00009684A0501D5C0B27047C905FCD580B29D
:1003D000704770B50C460546012A05D0287880067E
:1003E00000D5EA69002302E0012305E05B1C93428B
:1003F00002D2E05C0028F9D1A869E618C01AA86109
:10040000286A184428622846FFF7AAFF04E0D5E9C5
:10041000012114F8010B9047B442F8D32846FFF7A6
:10042000B5FF70BD2DE9F04106460024106875291E
:10043000314616A510D0FFF7BAFF002802DA404275
:1004400013A507E031688A0701D512A502E0490724
:1004500004D511A5012401E0FFF7B2FF00210A2213
:1004600006F1240709E0B0FBF2FCB0FBF2F302FB5B
:100470001C00303078541846491C0028F3D123461C
:100480002A463046BDE8F04100F069BA000000009D
:100490002D0000002B000000200000001168026801
:1004A000006A530501D508700AE0D30501D508801C
:1004B00006E0130603D5C217C1E9000200E0086098
:1004C0000120704701694A1C02610878704700B535
:1004D0008FB0CDE901310021059105497944CDE97D
:1004E00003101146684600F031F90FB000BD00005E
:1004F000E5FFFFFF0A6802F8010B0A607047D1E9C7
:1005000000239A4202D2531C0B6010707047000007
:100510002DE9FF5F15468A460446DFF8AC80F844B3
:100520000027D8E900103E46CDE9001010E03AF867
:1005300016106A4602A800F025FE411C07D021785B
:10054000890603D5E269391891420DD80744761C13
:100550002078800602D5E069B84205DDAE42E6DBD0
:100560003AF816000028E2D1A069C01BA06120461D
:10057000FFF7F6FED8E90010CDE90010002017E0E3
:100580003AF818106A4602A800F0FCFDB0F1FF3FEF
:1005900081460BD000250DF1080B05E0D4E90121BF
:1005A0001BF8050090476D1C4D45F7D308F101007D
:1005B000B0428046E4DB206A384420622046FFF7E0
:1005C000E5FEBDE8FF9F0000C63900002DE9F041BF
:1005D0008046D21D22F007020025D2E90002F5294B
:1005E00015A614D0011E72F1000106DA0023D0EB2B
:1005F000030063EB020211A608E0D8F800108B0795
:1006000001D50FA602E0490701D50EA60125114626
:10061000002408F1240704E000F05CF930323A5578
:10062000641C50EA0102F7D12B463246214640466F
:10063000BDE8F04100F093B9000000002D0000007B
:100640002B0000002000000030B4002100F1240441
:1006500008E002F00705D208303542EA4372DB08B1
:100660006554491C52EA0305F3D10468002310A223
:10067000250707D5A40600D421B1C46901230DA222
:10068000641EC46130BC00F06AB910B5044621464E
:100690001068FFF795FE02462046BDE81040002393
:1006A000D2E7D21D22F00701D1E90023CCE70000F8
:1006B0000000000030000000F0B40D46018809057C
:1006C00002D5214C7C4402E01F4C7C440E340021B6
:1006D00000F1240608E002F00F071209E75D42EA84
:1006E00003721B097754491C52EA0307F3D10278BD
:1006F0000023120704D5702D06D009B1022311344E
:100700002246F0BC00F02BB901231034F8E770B595
:1007100004460D4621461068FFF752FE0246294660
:100720002046BDE870400023C6E7D21D22F0070333
:10073000D3E90023C0E70368126843F02003036095
:100740000823C3610023B7E7283800002DE9F05FD4
:10075000894604464FF0000ADFF874B1FB44C0F844
:1007600020A02046E1688847002874D0252806D0BC
:10077000D4E901219047206A401C2062F1E700265D
:100780005F462046E16888472028054607DB312D73
:1007900005D2781910F8200C08B10643F1E7B0072C
:1007A00001D526F00406C4F81CA00027C4F818A040
:1007B0002A2D09D0284602F068FE38B304EB8708DA
:1007C000303DC8F8185019E059F8041B204604EBD6
:1007D00087029161E1688847012F054618D1E069D9
:1007E000002820DA26F020061DE0D8F8180000EBDB
:1007F000800005EB40003038C8F818002046E1685A
:100800008847054602F041FE0028EED1012F0AD0AC
:100810002E2D08D12046E16888477F1C0546022F0F
:1008200046F02006C4DBA069002803DA404246F007
:100830000106A061F00701D026F010066C2D0BD048
:10084000682D09D04C2D39D06A2D35D0742D35D076
:100850007A2D33D016E038E0E1682F4620468847ED
:10086000B842054609D16C2F26D04FF48060E1686C
:10087000064320468847054604E06C2F1AD04FF403
:10088000807006430DB3A5F14100192802D8203528
:1008900046F400664A462946204626604E46FFF743
:1008A0005FFC80B101280BD0F61D26F0070000F197
:1008B000080956E74020E4E78020D8E70020D6E783
:1008C00006F104094DE7284652E7206ABDE8F09F8B
:1008D000B837000030B5B0F10A024FEA900E71F15E
:1008E00000034EEA817EB0EB0E0061EB91014FEA0E
:1008F000101E4EEA017E10EB0E0041EB11114FEA83
:10090000102E4EEA016E10EB0E0041EB11214FEA62
:10091000104E4EEA014E10EB0E0041EB1141401813
:1009200041F100014FEAD00040EA41704FEAD101A5
:1009300010EB80054FEA810444EA907444EB010413
:100940006D1944EB0404521BA3414FF0000348BF50
:100950000A3200D530BD401C41F1000130BD2DE907
:10096000F0470D4699469246044600F12408016876
:10097000880604D5E06921F01001216000E0012023
:10098000A84201DD471B00E00027A1697A1902EBAC
:100990000900081AA0612078C00602D42046FFF79B
:1009A000DFFC002608E0D4E901211AF80600904790
:1009B000206A401C761C20624E45F4DB2078C0067D
:1009C0000AD52046FFF7CCFC06E0D4E9012130200F
:1009D0009047206A401C2062381EA7F10107F4DC12
:1009E00007E0D4E9012118F805009047206A401C6F
:1009F0002062281EA5F10105F3DC2046FFF7C6FCA6
:100A00002078000602D50220BDE8F0870120FBE730
:100A100070472DE9FF4F0C461E464FF0FF378BB055
:100A2000D2E90001DDF860800A908A46C1F30A55D8
:100A300005B93D46002108464FF00000BAF1000F0D
:100A400000F4400005DA00EB80004FF4400101EAB9
:100A500050004FEA9059B9F1010F00DDB9460A98EC
:100A600050EA4A000ED044F61050A5F2FF35454337
:100A70002F14B8F1000F1ED07542291E1EDDC9F1DA
:100A800000021CE0B8F1010F4FF0000001D030214E
:100A900003E0F24305E02154401CB042FBDB30464A
:100AA0000022002121540B99C1F80880C1E90020DF
:100AB0000FB0BDE8F08FBD1B6D1CDEE74A4600DAC3
:100AC000694206A800F0F0FB06AB93E8070003AB11
:100AD00083E8070050460A9900F0ADFC8DE8070056
:100AE000A0F500501F3800900398002D0ADD42F257
:100AF0001F014A460844002303A90390684600F0FA
:100B000016FF09E0A0F500504A461F38002303A94C
:100B10000390684600F020FF8DE807000004000CF9
:100B200003D04FF0FF30410800E01046B8F1000F4D
:100B300003D00022009215461EE0751E05D4FFF773
:100B4000C9FE303262556D1EF9D5B3460122084305
:100B500002D000227F1C04E02078302801D100223E
:100B60007F1E002A099784D01DE0112D07DAFFF7B8
:100B7000B1FE303262556D1C50EA0102F5D10843D6
:100B800002D00098C8B10EE00021681E05E0235C89
:100B9000625C63542254401E491C8142F7DBAB4621
:100BA000A81B401E0990002004F80B000B98099A1E
:100BB000C0F80880C0E9002B7AE711264FF0000842
:100BC00057E72DE9F04F88460446D21D22F0070171
:100BD00091B0D1E90001CDE90A0102F032FC0246F0
:100BE0000B98C00F01D02D2007E02068810701D5A8
:100BF0002B2002E0202101EAC000032A099001D045
:100C0000072A05DB03464146204600F00DFB0BE1B9
:100C10002078800601D5E06900E00620B8F1650F74
:100C2000814606D0B8F1660F18D0B8F1670F70D1C1
:100C300031E00020B9F1110F009001DB112301E038
:100C400009F101030AAA01A90CA8FFF7E2FEDDE9F8
:100C50000C70002609F10105834647E001204B4650
:100C600000904FF000470AAA01A90CA8FFF7D1FE97
:100C7000DDE90DB00C995D46002610B909F10100BF
:100C80000D18B9EB050003D4C0F1FF3609F10105D9
:100C9000A5EB09002BE0B9F1010F01DA4FF00109D2
:100CA0000020B9F1110F0090484601DD112300E04A
:100CB00003460AAA01A90CA8FFF7ABFEDDE90C70F8
:100CC0004D4600268346207800070AD4AB4500DA5B
:100CD0005D4601A8012D04DD411911F8011C3029E0
:100CE00007D04F4502DA17F1040F04DA01208246DB
:100CF0000FE06D1EEEE7002F02DCED1B3E4403E02B
:100D0000781CA84200DD7D1CB81B00F1010A4FF0E1
:100D100000472078000703D4AA4501DB4FF0FF3AD3
:100D20000021B7F1004F0DF143088DF8431024D096
:100D300002202B23002F01DA7F422D230A21021EDD
:100D4000A0F1010000DC5FB197FBF1FC97FBF1F231
:100D500001FB1C7C17460CF1300C08F801CDEEE7C6
:100D6000A8F1010003702188090501D5452100E0A3
:100D70006521A0F1010800F8011C09980FA9A1EB59
:100D80000807FF1D00B10120411901EBEA70A169BC
:100D90003844081A401EA0612078C00602D42046BC
:100DA000FFF7DEFA099828B1D4E901219047206ABB
:100DB000401C20622078C00622D52046FFF7D0FADA
:100DC0001EE0002E04DBB34502DD01A8805D00E0DB
:100DD0003020D4E901219047206A401C2062761C13
:100DE000AAF101005FEA000A0AD100F019FAC0680E
:100DF0000168405CD4E901219047206A401C2062D0
:100E0000281EA5F10105DCDC07E0D4E9012118F872
:100E1000010B9047206A401C2062381EA7F1010791
:100E2000F3DC2046FFF7B2FA032011B041E60000E0
:100E30002DE9F04F04460D46D21D22F0070089B07F
:100E4000D0E900974846394602F0FBFA0246F80F0F
:100E500001D02D2307E02068810701D52B2302E074
:100E6000202101EAC0038DF820300BB1012000E001
:100E70000020032A824601D0072A04DB29462046A7
:100E800000F0D2F93FE12078800601D40D2500E082
:100E9000E569C7F30A560D2D49DA00214FEA175BC1
:100EA00008464FF00000002F00F4400007DA00EB86
:100EB00080004FF4400100EBD07001EA6000811522
:100EC000012901DD4FF0FF3100224FEA850CBCF112
:100ED000180F06D31346ACF118004FF08052C240F1
:100EE00003E04FF4801323FA0CF30CF10C0CBCF16B
:100EF000200F04D3ACF1200C09FA0CF001E007FA42
:100F00000CF000294FF0004801DD18B90FE00ED1B8
:100F100040450CD319EB02095F4121B9404502D18C
:100F20009F4329EA0209BBEB175F00D0761C20889B
:100F3000000502D57B48784402E07A4878441938A5
:100F400008AA302302F80A30037C0AF10101002EBE
:100F50000AF1020A53546A4602DC4FF0300101E004
:100F60004FF031014FF001088DF8001002D0A6F2C9
:100F7000FF3603E059EA470100D06B4E002D02DC3A
:100F80002178090704D54FF002082E218DF80110B1
:100F9000C44600210BE0C7F303433F01C35C491C77
:100FA0006D1E02F80830052908F1010801DA002D4C
:100FB000F1DC00210CE000EB1973491C1B786D1E5D
:100FC000082902F808304FEA091908F1010801DA86
:100FD000002DF0DC21688B0602D516E0A8F101088F
:100FE000E04505DD02EB080313F8013C302BF5D09A
:100FF000B8F1000F09DD02EB080313F8013C2E2BBA
:1010000003D1090701D4A8F10108002D05DD3E2117
:1010100002F808106D1E08F10108407C002E02F84D
:10102000080008F1010804DA2D20764202F80800D1
:1010300002E02B2002F808000A214FF47A70864261
:1010400008F101080BDB96FBF0F3303302F80830AF
:1010500096FBF0F308F1010800FB136601E0642E33
:101060000CDB642096FBF0F3303302F8083096FB7B
:10107000F0F308F1010800FB136601E00A2E06DB1D
:1010800096FBF1F0303002F8080008F1010896FBF9
:10109000F1F001FB1060303002F80800A16908F19E
:1010A000010808EB050202EB0A00081AA06120788B
:1010B000C00602D42046FFF753F9216A08AE01EBBF
:1010C0000A00206204E0D4E9012116F8010B9047E0
:1010D000BAF1010AF7D22078C00602D52046FFF700
:1010E0003FF96E4609E016F8010B3E280FD0D4E90F
:1010F00001219047206A401C2062B8F10108F2D219
:101100002046FFF743F909B00320BDE8F08F206ABD
:101110002844206203E0D4E90121302090476D1E6D
:10112000EBD3F8E70230000002FCFFFF10B5436983
:1011300013B1AFF3008001E0FFF74BF9012010BDC0
:10114000127800F124010A7000224A700122EDE7B2
:1011500011684FF0FF32E9E710B5436913B1AFF3FF
:10116000008001E0FFF7D4F9012010BD128800F1E2
:10117000240182840022C2840122EDE711684FF02D
:10118000FF32E9E770B516460C46054600F040F818
:10119000036893F80101012806D0FF2C0FD8185DD1
:1011A00068B101202C7070BDD3F80701324621468A
:1011B00003F2071303442846BDE8704018474FF078
:1011C000FF3070BD754600F0EBF8AE46050069468D
:1011D000534620F00700854618B020B5FFF738F8D1
:1011E000BDE820404FF000064FF000074FF0000828
:1011F0004FF0000B21F00701AC46ACE8C009ACE8A9
:10120000C009ACE8C009ACE8C0098D4670470000D1
:1012100010B500F005F8001D10BD00BFD926000074
:1012200000487047B40800202DE9F0411F460446ED
:1012300003260168072A01F4006004DB08B116A543
:1012400005E016A503E008B115A500E015A521F0FD
:1012500010002060A069C01EA0610FB1401EA061F7
:101260002046FFF77DF84FB1D4E901213846904779
:10127000206A401C2062C01C206206E0206AFAE757
:10128000D4E9012115F8010B9047761EF8D22046CB
:10129000FFF77CF8BDE8F0814E414E006E616E00B4
:1012A000494E4600696E66002DE9F04781461646B4
:1012B0008AB0354878440DC88DE80D00324878442E
:1012C000801C03AC0DC884E80D0041F69B30084437
:1012D000372190FBF1F290FBF1F5A5F1800501FBC0
:1012E00012041B3C02D56442012000E00020DFF81C
:1012F00098A080460027FA44AAF1BE0A0EE0E00753
:101300000AD03246684607EB470101230AEB810108
:1013100000F022FB8DE8070064107F1C002CEED14A
:10132000194F7F44AE3F19E0E80715D007EB0410D2
:101330000DF1180A90E80E008AE80E00C068F0422D
:1013400001D1981908903246012306A903A800F09C
:1013500003FB03AB83E807006D10641C002DE3D191
:101360004FF0010332466946B8F1000F03A802D0DE
:1013700000F0DDFA01E000F0EFFAC9E90001C9F878
:1013800008200AB0BDE8F087142D000010B504460F
:10139000AFF300802046BDE81040FEF744BF0000D8
:1013A00000487047940800204FF0013C50F8042B8F
:1013B00051F8043B9A4221D1A2EB0C03934313EA68
:1013C000CC1317D150F8042B51F8043B9A4215D195
:1013D000A2EB0C03934313EACC130BD150F8042B6C
:1013E00051F8043B9A4209D1A2EB0C03934313EA50
:1013F000CC13DBD04FF00000704700BFD01A01BA09
:10140000B1FA81F101F0180122FA01F0CB40C1F1EB
:101410002001DBB2C0B2C01A2CFA01F3D11A9143F9
:1014200011EAC311E6D1704701491820ABBEFEE7AF
:101430002600020070475FEA400C08BF91F0000FE1
:101440004FEA8C234FEAC12243EA51514FEA1C5024
:1014500018BF00F5F0404FEA300018BF41F00041DE
:101460005FEA6C5C00F02980BCF1FF3F08BF40F0F0
:1014700080407047130C06BF12044FF0100C4FF061
:10148000000C130E04BF12020CF1080C130F04BF62
:1014900012010CF1040C930F04BF92000CF1020C2A
:1014A000D30F04BF52000CF1010C11464FF00002A3
:1014B000A0F11F00A0EB0C00704711F0004F08BF17
:1014C000704731F000413FF4D5AF0B0C06BF090463
:1014D0004FF0100C4FF0000C0B0E04BF09020CF182
:1014E000080C0B0F04BF09010CF1040C8B0F04BF97
:1014F00089000CF1020CCB0F04BF49000CF1010C68
:10150000CCF12003A0EB0C0022FA03F302FA0CF258
:1015100041EA030100F10100704720F07F4C80EAAE
:10152000030023F07F47ACEB070303F57C5300F087
:10153000004003F1FF032DE980494FEA154B09B440
:101540004FEA144325EA0B4E24EA03480FF204261F
:1015500006EB132749083E785FEA320203FB066771
:10156000C7F5000707FB06F64FEA54374FEAD646A1
:1015700006F1020607FB066CCCF1005C4FEA1C4743
:101580002CEA074C07FB06F40CFB06F504EB1546AA
:101590004FEA961634BF00204FF000404FEAD13793
:1015A00006FB07FC4FEA1C4C0CFB0BF7D21B03FBA2
:1015B0000CF761EB07010CFB0EF7B0EB074072EB89
:1015C00017420CFB08F734BFA2EB0742B2EB07420D
:1015D00061EB17414FEA0C444FEA910706FB07FC09
:1015E0004FEA1C4C0CFB0BF7B0EBC74072EB5732C9
:1015F00003FB0CF734BFA2EBC742B2EBC74261EB6F
:1016000057310CFB0EF7B0EBC70072EB57720CFBB7
:1016100008F734BFA2EBC702B2EBC70261EB577108
:10162000039F4FEA816141EA921104EBCC044FEA37
:10163000D1374FEA826206FB07FC42EA90124FEA7A
:1016400080604FEA1C4C0CFB0BF7D21B03FB0CF722
:1016500061EB07010CFB0EF7B0EB074072EB174292
:101660000CFB08F734BFA2EB0742B2EB074261EB79
:1016700017414FEA8C554FEA910704EB9C2406FB77
:1016800007FC4FEA1C4C0CFB0BF7B0EBC74072EBAE
:10169000573203FB0CF734BFA2EBC742B2EBC74291
:1016A00061EB57310CFB0EF7B0EBC70072EB5772D2
:1016B0000CFB08F734BFA2EBC702B2EBC70261EB29
:1016C000577115EB4C254FEA816141EA92114FEABF
:1016D00082624FEAD13742EA901206FB07FC44F1DE
:1016E00000044FEA80604FEA1C4C0CFB0BF7D21B46
:1016F00003FB0CF761EB07010CFB0EF7B0EB0740A7
:1017000072EB17420CFB08F734BFA2EB0742B2EBB7
:10171000074261EB174115EB1C154FEA813141EA95
:1017200092414FEA823242EA90424FEA80304FEAD9
:101730000C7644F1000448EA03434EEA0B484FF0AC
:10174000000EB2EB080C71EB030724BF624639466A
:101750004EEB0E0E4FF0000B0018524149414BEB7F
:101760000B0BB2EB080C71EB03077BF1000B24BFF2
:10177000624639464EEB0E0E4FF0000B00185241F8
:1017800049414BEB0B0BB2EB080C71EB03077BF100
:10179000000B24BF624639464EEB0E0E51EA02079B
:1017A00018BF46F0010616EB0E7655F1000254F113
:1017B000000103D5BDE88901BDE80088BDE88901C5
:1017C000BDE80048B619524141EB0101A3F1010304
:1017D000704780807F7E7D7C7B7A7978777676759E
:1017E0007473727171706F6E6E6D6C6C6B6A6A6916
:1017F0006868676666656464636362616160605FB0
:101800005F5E5E5D5D5C5C5B5B5A5A595958585728
:101810005756565555555454535352525251515090
:1018200050504F4F4F4E4E4D4D4D4C4C4C4B4B4BE3
:101830004A4A4A4949494848484747474746464629
:101840004545454444444443434343424242424164
:101850004141002B9C4630D477002BD01CB54FEA79
:10186000370703B44FF010004FF01001BAF1000F2A
:1018700006D0BCF1000FDCBF40F0080040F00801CA
:101880004FF000000FBCBDE810400BF1010BBBF1A5
:10189000010F08BF5FEA170722BF12F1010211F121
:1018A00001014FF0004143F1000300F0004043EA22
:1018B00000007047F9D35708D0E746EA064613F10F
:1018C000400F4FEA16461FDD13F1200FDFBF16430E
:1018D0000A46002120335B42BED0C3F1200746EA0E
:1018E000064602FA07F74FEA164646EA0706C3F12C
:1018F000200722FA03F201FA07F721FA03F14FF069
:10190000000342EA0702A7E746EA020646EA06465D
:101910004FEA164646EA0106BCBF46EA0646360CC2
:101920004FF000034FF000024FF0000194E72DE963
:10193000804C9A46934670B491E8380007C831EA63
:10194000400C48BF34EA430C03D5FFF7E6FDFFF730
:1019500080FFF0BCBDE8008C2DE9804C9A46934690
:1019600070B491E8380007C810F0804F08BF13F03A
:10197000804F03D100F005F8FFF76BFFF0BCBDE826
:10198000008C20F07F4780EA030023F07F4C07EBB8
:101990000C03A3F57C5300F00040A3F1FE0392F08A
:1019A000000F00F0B38095F0000F00F077802DE974
:1019B00001494FEA11404FEA144621EA004800FB72
:1019C00006FC24EA064708FB06F607FB08F800FBBE
:1019D00007F718EB06484CEB164C4FEA124B18EB86
:1019E00007484FEA15464CEB174022EA0B4E0BFB1B
:1019F00006FC25EA06470EFB06F607FB0EFE0BFB70
:101A000007F71EEB064E4CEB164C4FF000061EEB94
:101A1000074E4CEB174B18EB0B0840F1000018EB8E
:101A20000E0B58EB000840F100008F1A4FF0000138
:101A30003CBFC943661B14BFB5EB040C00213CBF7F
:101A4000C943F61B4FEA17444EEA8E0E27EA0445B7
:101A50004FEA1C4704FB07622CEA074C05FB07F71B
:101A60000CFB05F604FB0CFC16EB074642EB174299
:101A700016EB0C4642EB1C421BEB060658EB02022F
:101A8000414146EA9E0601D5BDE80189B619524199
:101A900041EB0101A3F10103BDE801894FEA1445BF
:101AA0004FEA114724EA054621EA074C05FB07F4F3
:101AB00006FB07F70CFB06F105FB0CFC11EB0741DD
:101AC00044EB17444FEA124711EB0C4144EB1C4422
:101AD00022EA074C05FB07F206FB07F70CFB06F6AC
:101AE00005FB0CFC16EB074642EB174216EB0C46C7
:101AF00042EB1C456A1854F1000148BF7047B61903
:101B0000524141EB0101A3F10103704795F0000F31
:101B100037D04FEA11424FEA144721EA024624EA3D
:101B2000074C02FB07F106FB07F70CFB06F402FB70
:101B30000CFC14EB074441EB17414FEA154714EB3B
:101B40000C4441EB1C4125EA074C02FB07F506FB60
:101B500007F70CFB06F602FB0CFC16EB074645EB01
:101B6000174516EB0C4645EB1C42121951F10001CA
:101B700048BF7047B619524141EB0101A3F101037F
:101B800070474FEA14454FEA114724EA054621EA17
:101B9000074C05FB07F106FB07F70CFB06F24FF0BD
:101BA000000605FB0CFC12EB074241EB174112EB60
:101BB0000C4251EB1C4148BF7047921841EB0101A8
:101BC000A3F101037047FEE77047022000F0E8B878
:101BD000F0B58BB028216846FEF798FB1F4900201E
:101BE0000346D1E90624224402EB42029200142467
:101BF00092FBF4F66422C1E90602194A01216C46FF
:101C000052F82150B5420FDD02EB8107D7F804C02E
:101C1000654507DB57F8047CBD4203DB44F8201020
:101C2000401C14310A2802DC491CBE29E8DB0128CB
:101C300012DD012109E000BF04EB810554F82120E9
:101C400055F8045C521B1344491C8142F4DB401ECE
:101C500093FBF0F00BB0F0BD0020FBE7000000208C
:101C60000404002010B590F821100022022905D0AC
:101C70000421816380F82020012010BD01680B68D9
:101C800023F00E030B6001680B6823F001030B6067
:101C900090F84030C46B012101FA03F3636080F8CF
:101CA000211080F82020104610BD000010B590F8DB
:101CB00021100024022903D00421816301243DE086
:101CC00001680A6822F00E020A6001680A6822F0C0
:101CD00001020A601A4A0168914201D1012121E002
:101CE000174A1432914201D110211BE0144A2832C4
:101CF000914201D1891515E0114A3C32914201D13E
:101D000089140FE00E4A5032914202D14FF48031D3
:101D100008E00B4A6432914202D14FF4801101E095
:101D20004FF08071064A083A5160012180F8211075
:101D3000002180F82010416B01B18847204610BD7A
:101D40000800024010B5022825D11349002240079F
:101D50008B78022413B14B7873B10EE00B7803B982
:101D600042625B1CDBB20B70122B12D9436A4B60D0
:101D700042620A70012009E042625B1CDBB24B70D8
:101D80000C2B06D9406A88604A702046887001F0A2
:101D90004FF90248046010BD000000201404014007
:101DA000044910B50A68024202D00860FFF7CAFF72
:101DB00010BD0000140401402DE9F84FDFF8B89180
:101DC0000024A9F1040B23460F2709F1040AABF103
:101DD000040EC9E00125A5402A40AA427DD1674EE4
:101DE000D1F804C0ACEB0608B44532D014DCBCF129
:101DF000030F3AD009DCBCF1000F2AD0BCF1010F6F
:101E00001CD0BCF1020F31D11DE0BCF1110F17D075
:101E1000BCF1120F2AD119E0B8F5881F19D006DCE1
:101E2000B8F5803F15D0B8F5801F1FD111E0B8F587
:101E3000001F0ED0B8F5041F18D10AE0CB6815E0DA
:101E4000CB681B1D12E0CB6808330FE0CB680C3366
:101E50000CE08B682BB1012B4FF0080303D04561D8
:101E600004E0042302E0056100E00023FF2A01D81A
:101E7000064601E000F104064FEA840501D9A5F108
:101E80002005D6F8008007FA05FC28EA0C0803FABA
:101E900005F548EA0508C6F800804D68ED0062D5F2
:101EA000374DAE6946F00106AE61AD6924F0030618
:101EB00005F001050095334D06EB050CDCF80850E4
:101EC000A607360F07FA06F825EA0805DFF8B880F6
:101ED000404503D14FF0000817E044E0DFF8AC8044
:101EE000404502D14FF001080FE0DFF8A4804045E3
:101EF00002D14FF0020808E0DFF89880404502D197
:101F00004FF0030801E04FF0040808FA06F848EA29
:101F10000508CCF808804D68D9F80060ED024D4600
:101F200001D5164300E096432E604D68DAF8006054
:101F3000AD02554601D5164300E096432E604D682C
:101F4000DBF80060AD035D4601D5164300E0964323
:101F50002E604D68DEF80060ED03754601D516432E
:101F600000E096432E60641C0D682A46E5407FF42D
:101F700031AFBDE8F88F00000804014000001110E7
:101F8000001002400000014000080140000C014028
:101F900000100140001401400AB1016170470904BA
:101FA000FBE7000001488068704700003400002013
:101FB0000248816802781144816070473400002033
:101FC000074810B5016841F010010160032000F0DE
:101FD00089F8002000F006F800F024F8002010BD79
:101FE0000020024070B50D4D04464FF47A712878F8
:101FF000B1FBF0F00A490968B1FBF0F000F0F0FA2B
:1020000048B9102C07D200222146501E00F04AF891
:1020100000206C6070BD012070BD00003400002005
:10202000400000200E4808B5816941F0010181613E
:10203000816901F001010091C16941F08051C161E4
:10204000C06900F080500090052000F04BF8054872
:10205000416821F0E06141F00071416008BD00007D
:10206000001002400000014000280DDB00F01F02BC
:10207000012191404009800000F1E020C0F880116A
:10208000BFF34F8FBFF36F8F7047002809DB00F05D
:102090001F02012191404009800000F1E020C0F8BA
:1020A00000117047F0B40E4B1B680C46C3F30223BB
:1020B000C3F10705042D00D90425191D072901D2F4
:1020C000002300E0DB1E012606FA05F1491E21402F
:1020D00099409E40761E16403143F0BC01F0C5B9D0
:1020E0000CED00E0064900F0070208684FF6FF0318
:1020F000184040EA0220034A10430860704700007D
:102100000CED00E00000FA052DE9F0470F46050050
:1021100061D0434E306800F00700B84209D2306801
:1021200020F0070038433060306800F00700B84204
:1021300051D128683B4C810712D5400703D5606810
:1021400040F4E06060602878000703D5606840F4E0
:10215000605060606068A96820F0F000084360602B
:102160002878C00728D06868012810D02168022884
:1021700010D0890700292EDA616821F0030101439C
:102180006160FFF70FFF804641F288390DE021685A
:102190008903EFE78901EDE7FFF704FFA0EB0801F2
:1021A000494502D90320BDE8F0876068696800F0FE
:1021B0000C00B0EB810FEFD1306800F00700B8429F
:1021C0000BD9306820F0070038433060306800F0E9
:1021D0000700B84201D00120E5E72878400705D57F
:1021E0006068E96820F4E0600843606028780007D0
:1021F00006D56068296920F4605040EAC10060603B
:1022000000F038F86168084AC1F30311515CC84016
:102210000649086006480068FFF7E4FE0020C2E7B0
:102220000020024000100240D03E00084000002084
:10223000380000200448054900684968044AC1F391
:102240000221515CC840704740000020001002404D
:10225000E03E00080448054900684968044AC1F3A3
:10226000C221515CC840704740000020001002406D
:10227000E03E00080E4A51680E4801F00C03042BA2
:1022800011D0082B0FD10C48C1F38343C903C05CA4
:102290000AD55168084AC1F34041921E515C054A73
:1022A0005043B0FBF1F070470449484370470000C9
:1022B0000010024000127A00C03E000800093D00F4
:1022C0002DE9F84F040070D02078C04DC00749D0E8
:1022D0006868C0F38100012807D06868C0F38100F6
:1022E000022809D16868C00306D52868800339D55B
:1022F00060680028E7D035E06068B0F5803F0BD01B
:1023000010B1B0F5A02F11D0286820F480302860DB
:10231000286820F4802002E0286840F4803028609B
:10232000606890B1FFF73EFE06460AE0286840F478
:1023300080202860F0E700BFFFF734FE801B642890
:1023400073D828688003F7D50CE0FFF72BFE06460C
:1023500005E000BFFFF726FE801B6428F0D8286840
:102360008003F7D420789A4E80074FF001094FF090
:10237000000839D5686810F00C0F07D06868C0F302
:102380008100022809D16868C00306D42868800744
:1023900014D52069012808D110E02069B0B1C6F831
:1023A0000090FFF7FFFD074605E00AE1FFF7FAFDA1
:1023B000C01B0228C4D828688007F7D5286861693F
:1023C00020F0F80040EAC10028600DE0C6F8008067
:1023D000FFF7E8FD074604E0FFF7E4FDC01B022815
:1023E00023D828688007F7D4207800072CD57948AF
:1023F000A169D9B1C0F80090FFF7D4FD074604E009
:10240000FFF7D0FDC01B02280FD8686A8007F7D5F8
:1024100071484FF4FA510068B0FBF1F0009000BF32
:102420000098411E0091FAD20EE080E0C0F80080D2
:10243000FFF7B8FD074604E0FFF7B4FDC01B022814
:1024400075D8686A8007F7D42078400760D5E869B6
:102450000027C00008D4E86940F08050E861E869CE
:10246000012700F0805000905C480168C90513D432
:102470000168834641F480710160FFF793FD824655
:1024800006E000BFFFF78EFDA0EB0A0064284ED8DF
:10249000DBF80000C005F5D5E06801280AD008B1D6
:1024A000052813D0286A20F001002862286A20F04D
:1024B000040002E0286A40F001002862E06841F26E
:1024C000883B98B1FFF76EFD82460BE0286A40F02A
:1024D00004002862EEE700BFFFF764FDA0EB0A01ED
:1024E00059455AD8286A8007F6D50CE0FFF75AFDFF
:1024F000824605E0FFF756FDA0EB0A0159454CD88E
:10250000286A8007F6D41FB1E86920F08050E8619E
:10251000E06988B36968C1F38101022944D00228C7
:10252000C6F8608004D0FFF73DFD044638E034E093
:10253000FFF738FD074604E0FFF734FDC01B022813
:102540002BD828688001F7D4206AB0F5803F05D1E8
:102550006868A16820F4003008436860D4E9080185
:102560000843696821F4741108436860C6F86090F4
:10257000FFF718FD044606E025E000BFFFF712FD57
:10258000001B022809D828688001F7D51BE000BF8E
:10259000FFF708FD001B022802D90320BDE8F88FD1
:1025A00028688001F4D40EE00128F7D06868226A18
:1025B00000F48031914204D1616A00F470108842C5
:1025C00001D00120EAE70020E8E700000010024007
:1025D000000042428004424240000020007000405F
:1025E00010B5401EB0F1807F01D3012010BD4FF027
:1025F000E02460610F21601700F037FF0020A06128
:1026000007202061002010BD7047704770B590F81A
:102610003C20012A26D0012480F83C40022280F888
:102620003D2003685A689D6822F070060A683243AC
:102630005A600D4B02689A4208D0B2F1804F05D023
:102640000A4B9A4202D00A4B9A4204D1496825F0BB
:1026500080031943916080F83D40002180F83C10D0
:10266000084670BD022070BD002C014000040040EF
:102670000008004010B5040003D094F83D0010B1EC
:1026800007E0012010BD002084F83C00204600F047
:102690001FF8022084F83D00211D206800F036FD5F
:1026A000012084F8460084F83E0084F83F0084F856
:1026B000400084F8410084F8420084F8430084F824
:1026C000440084F8450084F83D00002010BD00005F
:1026D00008B501681448B1F1804F14D0134A9142F3
:1026E00020D1C16941F00201C161C069002200F03E
:1026F0000200009011461D20FFF7D4FC1D20BDE80C
:102700000840FFF7C2BCC16941F00101C161C06965
:10271000002200F00100009011461C20FFF7C2FCCF
:102720001C20ECE708BD000000100240000400403F
:1027300090F83D10012901D001207047022180F856
:102740003D100168CA6842F00102CA6000680B4986
:10275000884208D0B0F1804F05D00949884202D0A4
:102760000849884204D1816801F00701062903D095
:10277000016841F00101016000207047002C014018
:10278000000400400008004070B5044690F83C008A
:102790000025012817D0012684F83C60022084F827
:1027A0003D002068826822F0770222F47F42826036
:1027B0000868502838D00DDC20284FD005DC90B3B5
:1027C000102811D14AE0022070BD302846D04028A0
:1027D0000AD13BE060282FD070280DD0B0F5805F83
:1027E00003D0B0F5005F12D0012584F83D600020D1
:1027F00084F83C00284670BDCB68D1E901212068EF
:1028000000F0BAFC2068816841F0770109E0CB68EC
:10281000D1E90121206800F0AFFC2068816841F413
:1028200080418160E1E719E0CA684968206800F0EA
:10283000B5FC5021206806E0CA684968206800F0AD
:10284000BEFC6021206800F0A1FCCEE7CA684968A0
:10285000206800F0A3FC40212068F4E722680146CC
:102860001046F0E7704770B50446006801694FF004
:102870000005C943890715D4C168C943890711D424
:10288000E91E0161012020772068806980072046C9
:1028900002D0FFF7E7FF04E000F098F8204600F0D0
:1028A00096F8257720680169C943490717D4C1689C
:1028B000C943490713D46FF0040101610220207756
:1028C0002068806910F4407F204602D0FFF7CAFFDD
:1028D00004E000F07BF8204600F079F825772068C6
:1028E0000169C943090716D4C168C943090712D44D
:1028F0006FF008010161042020772068C06980071B
:10290000204602D0FFF7AEFF04E000F05FF820465B
:1029100000F05DF8257720680169C943C90617D41E
:10292000C168C943C90613D46FF0100101610820C2
:1029300020772068C06910F4407F204602D0FFF75E
:1029400091FF04E000F042F8204600F040F82577BF
:1029500020680169C943C90708D1C168C943C907CB
:1029600004D1891E0161204600F032F82068016917
:10297000C943090609D4C168C943090605D46FF0E3
:10298000800101612046FFF73FFE20680169C943CD
:10299000490609D4C168C943490605D46FF040010E
:1029A0000161204600F02EF820680169C9438906BC
:1029B0000BD4C168C943890607D46FF020010161B7
:1029C0002046BDE87040FFF720BE70BD70477047DD
:1029D00070B50A4988420FD1094D002407202C7098
:1029E0006C70FFF752FB4FF080404462AC702046A1
:1029F000BDE8704000F01CBB70BD0000BC070020AB
:102A0000000000207047704770470000F8B501686B
:102A100004460868CA684B6910F00F0F4FF00005B4
:102A200059D003F0010602F49077374365D0C1070F
:102A300005D0D10503D5616C41F001016164410706
:102A400005D5D90703D0616C41F0020161648107AB
:102A500005D5D90703D0616C41F004016164010719
:102A600007D502F02001314303D0616C41F0080129
:102A70006164616C00293AD0800604D5900602D5C5
:102A8000204600F0DDFB20684069616CC0F38010D7
:102A9000090700D460B3204600F0ABFB2068406912
:102AA000400621D52068143050E8001F21F0400175
:102AB00040E80012002AF5D1E06BA8B16D494163EE
:102AC000E06BFFF7F3F8002811D0E06B416B01B029
:102AD000BDE8F040084783060FD593060DD5204684
:102AE000BDE8F84000F0ACBB2046FFF78DFFF8BD15
:102AF0002046FFF789FF6564F8BD266B2023012E71
:102B00007CD1C6067AD5D60678D508684868009084
:102B100048694FF00206400640D5E16B08684068FE
:102B20000004000CE8D0A28D8242E5D9E0858869D6
:102B300020282DD020680C3050E8001F21F480712F
:102B400040E80012002AF5D12068143050E8001F38
:102B500021F0010140E80012002AF5D1206814306C
:102B600050E8001F21F0400140E80012002AF5D192
:102B700084F84230256320680C3050E8001F21F0B3
:102B8000100140E80012002AF5D1E06BFFF76AF867
:102B90006663A08DE18D401A81B22AE0A08DE18D9F
:102BA000401A81B2E08D0028A6D00029A4D0226866
:102BB0000C3252E8000F20F4907042E80007002F1A
:102BC000F5D12068143050E8002F22F0010240E8CF
:102BD0000027002FF5D184F84230256320680C309F
:102BE00050E8002F22F0100240E80023002BF5D11E
:102BF00066632046FFF707FFF8BDFFE705062BD504
:102C0000150629D594F841002128F5D1A068B0F522
:102C1000805F01D12069B0B1206A411C2162216826
:102C200000784860E08C401E0004000CE084E3D192
:102C30002068C16821F08001C1602068C16841F04E
:102C40004001C160D8E7206A0088C0F308004860EE
:102C5000206A801C2062E5E74006CDD55006CBD522
:102C6000CA68204622F04002CA6084F8413000F071
:102C7000C3F8C1E7E331000870B5040004D094F84C
:102C80004100002510B106E0012070BD84F84050DD
:102C9000204600F023F8242084F841002068C16811
:102CA00021F40051C160204600F02CFB206801692E
:102CB00021F4904101612068416921F02A014161BC
:102CC0002068C16841F40051C1606564202084F827
:102CD000410084F842006563002070BD30B585B0C6
:102CE00000240094019402940394006818498842D7
:102CF0002CD11848816941F480418161816901F4D6
:102D000080410491816941F0040181618069124D23
:102D100000F0040004904FF4007000900220019035
:102D20000320039069462846FFF746F82815CDE9A9
:102D30000004694628460294FFF73EF80022114637
:102D40002520FFF7AFF92520FFF79FF905B030BD2B
:102D500000380140001002400008014070472DE992
:102D6000F843044690F841001F4616460D462028B9
:102D700002D00220BDE8F8837DB176B10020606406
:102D8000212084F84100FFF70DF9A6848046E684EF
:102D9000A068B0F5805F02D003E00120EAE7206977
:102DA00010B12E4600250EE000260CE080212046C2
:102DB00000F004FBA0B9AEB116F8010B2168486021
:102DC000E08C401EE084E08C43464FF00002009708
:102DD0000028EBD14FF04001204600F0EFFA30B16F
:102DE0000320C7E735F8020BC0F30800E6E7202010
:102DF00084F841000020BDE77047FEE70649002047
:102E0000064A01C1064B81E80D0020318A60054A5F
:102E10000860CA60486070474C08002017B7D13876
:102E20000AD7233C6F12833A2DE9F04F85B0002476
:102E300036480094019402940394816941F0100192
:102E40008161816901F010010491816941F02001E3
:102E50008161816901F020010491816941F00401DF
:102E60008161816901F004010491816941F00801E7
:102E700081618069DFF8989000F008004FF40055F8
:102E80000490002229464846FFF786F8DFF884A020
:102E90004FF44057002239465046FFF77DF8DFF8DF
:102EA00078B04FF4C058002241465846FFF774F8F6
:102EB0000095022601250396CDE90154694648464E
:102EC000FEF77AFF15480096CDE901046946584699
:102ED000FEF772FF00970396CDE90154694650460C
:102EE000FEF76AFFCDF80080CDE9015469465846E7
:102EF0000395FEF761FF002211460720FFF7D2F885
:102F00000720FFF7C2F805B0BDE8F08F00100240BF
:102F100000100140000C0140000801400000311089
:102F200010B586B0002417480094019402940394CD
:102F300004944FF08041059401604721C0E90114D9
:102F40004FF6FE71C0E9031480218161FFF792FB07
:102F500008B172B6FEE74FF4805000906946094808
:102F6000FFF712FC08B172B6FEE7049404A9054805
:102F70000594FFF74BFB002801D072B6FEE706B0C0
:102F800010BD00007407002010B586B0002417485B
:102F900000940194029403940494134905940160ED
:102FA00041F61F41C0E901145221C0E903148461B4
:102FB000FFF760FB08B172B6FEE74FF48050009057
:102FC00069460A48FFF7E0FB08B172B6FEE70494D1
:102FD00004A906480594FFF719FB002801D072B632
:102FE000FEE706B010BD000000040040BC07002052
:102FF0000FB44FF4FA7130B5FDB06C4693AB204678
:10300000929AFDF737F94FF0FF3506E02146641C30
:103010002B46012280A8FFF7A2FE20780028F5D1D8
:103020007DB030BC5DF814FBFEE7FEE770477047EB
:1030300070B54FF40061144C4D0098B1012817D0C1
:1030400002280ED101222046FEF7A6FF01222946C2
:103050002046FEF7A1FF0720FFF706F80B490120E5
:10306000C87070BD00222046FEF796FF012204E0E2
:1030700001222046FEF790FF002229462046BDE8A7
:103080007040FEF789BF00000008014000000020EA
:10309000FEF78EBF30B58FB028216846FDF736F9B0
:1030A00014210AA8FDF732F901210804CDE9001026
:1030B0000024029402250491CDE907504FF4E0105A
:1030C00009906846FFF7FCF808B172B6FEE70F20DA
:1030D000CDE90A054FF48060CDE90C4002210AA831
:1030E0000E94FFF711F8002801D072B6FEE70FB07A
:1030F00030BD70470148FFF7B6BB000074070020E1
:103100000148FFF7B0BB0000BC070020F0B5026823
:10311000164B174C174D4FF08047984205D0B842D8
:1031200003D0A04201D0A84203D122F070064A6821
:103130003243984205D0B84203D0A04201D0A84201
:1031400003D122F44074CA6822434C6922F0800201
:10315000224302608A68C2620A688262984201D190
:103160000969016301214161F0BD0000002C0140AB
:10317000000400400008004010B5846842EA0322C1
:1031800024F47F440A432243826010BD826822F007
:1031900070020A4342F007018160704710B5036A6C
:1031A000046A24F001040462846924F0F00444EA0F
:1031B000021423F00A020A438461026210BD10B5B2
:1031C000036A046A24F010040462846923F0A003F3
:1031D00024F4704444EA023243EA0111826101623C
:1031E00010BD10B5406A0021C185C184FFF70CFCF9
:1031F00010BD01680C3151E8002F22F4907241E8B3
:103200000023002BF5D10168143151E8002F22F082
:10321000010241E80023002BF5D1016B012909D1FE
:1032200001680C3151E8002F22F0100241E8002320
:10323000002BF5D1202180F8421000210163704756
:1032400008B590F84210222901D0022008BD8268FA
:103250004FF480539A4201D1016921B1816A9A42A7
:103260001BD04AB10AE00268816A5268C2F30802C0
:103270000A80816A891C08E0026972B1026852689A
:1032800002F07F020A70816A491C8162C18D491E69
:103290000904090CC18503D01BE002685268F1E7FC
:1032A0000168CA6822F02002CA600168CA6822F474
:1032B0008072CA6001684A6922F001024A612021D5
:1032C00080F8421000214163026B012A03D0FFF70E
:1032D00045FD002008BD016301680C3151E8002F55
:1032E00022F0100241E80023002BF5D101680A68A2
:1032F000D20602D50A6849680091818DFFF783FBE9
:10330000E7E7000070B5044600680169E26821F44F
:103310004051114301612169A06808436169084374
:103320002168CA6841F20C639A430243CA6020686C
:103330004169A26921F44071114341611E4920682D
:10334000884202D1FEF786FF01E0FEF773FF00EB33
:10335000C00101EB0012606864218000B2FBF0F351
:10336000B3FBF1F36FF018067343B2FBF0F5B2FB59
:10337000F0F605EB8305322303EB0515B5FBF1F5FC
:10338000B6FBF1F605F0F00505EB0615B2FBF0F61D
:10339000B2FBF0F0B0FBF1F06FF01802504306EB17
:1033A000800003EB0010B0FBF1F0216800F00F008B
:1033B0002844886070BD0000003801402DE9F041CC
:1033C000984617460E460446069D27E0681C25D001
:1033D0002DB1FEF7E7FDA0EB0800A8421ED920683A
:1033E0000C3050E8001F21F4D07140E80012002A90
:1033F000F5D12068143050E8001F21F0010140E8A9
:103400000012002AF5D1202084F8410084F84200FF
:10341000002084F840000320BDE8F08120680068A7
:1034200036EA000004D00020B842CFD00020F3E7F5
:103430000120F9E70148FFF7E9BA0000040800207D
:10344000FEE7490050EAC12018BF04204A0D18BF0A
:1034500040F0010040F2FF72B2EB515F08BF40F054
:103460000200012808BF052070470907090E00283F
:1034700004DB00F1E02080F80014704700F00F003A
:1034800000F1E02080F8141D704730380A2801D27E
:10349000012070470020704710B50A4B00210246FA
:1034A00003EB8104646843F82140491CC9B22244FB
:1034B0001329F5D303EB81014860142092FBF0F04F
:1034C00010BD00004400002010B50A4B0021024648
:1034D00003EB8104646843F82140491CC9B22244CB
:1034E0001329F5D303EB81014860142092FBF0F01F
:1034F00010BD00004400002030B5124A0021124BDC
:103500005469A4F1090003E053F82050401C2944F9
:10351000A042F9DD0A2391FBF3F00C4D05EB840486
:1035200044F8240C91FBF3F09469A04291FBF3F072
:1035300001DD906130BDD469A042FBDA91FBF3F06C
:10354000D06130BD00000020940000200404002061
:103550002DE9F041164C804625686561D4E90101EA
:1035600000F010FAE0610746E16800F00BFA01464E
:10357000384600F069FA064620612946404600F0C8
:1035800025FC314600F056FB294600F0FBF90546C4
:10359000A06131464FF07E5000F018FC394600F033
:1035A00049FB2062C4E900502846BDE8F0810000D4
:1035B000700800202DE9F041164C804625686561B1
:1035C000D4E9010100F0DEF9E0610746E16800F0AE
:1035D000D9F90146384600F037FA064620612946F7
:1035E000404600F0F3FB314600F024FB294600F092
:1035F000C9F90546A06131464FF07E5000F0E6FB68
:10360000394600F017FB2062C4E900502846BDE8A7
:10361000F08100004C080020A8B064204FF00008A2
:10362000464683462390FEF7CBFCFFF733FDFFF7BA
:10363000FBFB9A4D98484FF0000928604FF4E130A9
:10364000C5E901090C21C5F80C90C5E90491C5F83C
:1036500018902846C5F81C90FFF70EFB08B172B60B
:10366000FEE7FFF75DFCFFF78FFCFFF7C7FB8B481A
:103670009038FFF75DF889484838FFF759F8DFF8C8
:103680001CA2AAF1400A0AF178002690844CE07846
:103690000028FBD084F803906068FFF715FF2062D4
:1036A000A068FFF7F9FE6062E1686068401A00F008
:1036B000A9FAFFF77FFF7B4F394600F0BBFA00F015
:1036C00085FAA0622169A068401A00F09BFAFFF712
:1036D0003FFF394600F0AEFA00F078FA0746E062A4
:1036E00026226E4911A8FCF7DFFDE88CADF86A00D0
:1036F000DAF868101B91BAF86C00ADF87000E88D2C
:10370000ADF87200286B1D90686B1E9009221FA8EF
:103710002699FCF7C9FD95F841008DF8850095F8CC
:1037200042008DF88600686C2290A06A5EA1CDE907
:103730000E103822109715A96846FCF7B5FD0DF15B
:10374000440C9CE80F00FFF753FC6068E060A16840
:10375000216164289ADD6169C8291DDAA06A4045A3
:1037600001DD804603E0239A904200DA2390E06A6C
:10377000B04201DD064602E0584500DA8346626A3F
:10378000092910444B4A42F8210001DDFFF7B4FE3D
:103790006069401C606179E7C4F81490FEF718FA7C
:1037A00020630090206A00F02DFA0746606A00F05E
:1037B00029FA394600F048F90446584600F022FA42
:1037C0000746304600F01EFA394600F0FFFA06467A
:1037D000239800F017FA0746404600F013FA804697
:1037E000394600F0F3FA0746314600F02DF921463C
:1037F00000F020FA04464146384600F025F900F072
:1038000095F807460E46204600F090F80446884694
:10381000009841F63D4191FBF0FB26221F4914A878
:10382000FCF742FDE88CADF87600DAF868101E91DE
:10383000BAF86C00ADF87C00E88DADF87E00286B1E
:103840002090686B2190092222A82699FCF72CFD74
:1038500095F841008DF8910095F842008DF892009E
:10386000686C259014A1CDE90E1BCDE91048CDE977
:103870001276382218A96846FCF716FD0DF1500C97
:103880009CE80F00FFF7B4FB64204FF000084646A9
:1038900083462390FAE60000003801400408002027
:1038A00000000020000070417B723A25642C2564E2
:1038B0007D0D0A00940000207B643A25642C256667
:1038C0002C25667D0D0A000010B500290AD0087865
:1038D000002807D005487844FDF766FD002801D090
:1038E000002010BD0248784410BD00002E070000E3
:1038F0002607000010B500290AD00878002807D054
:1039000005487844FDF750FD002801D0002010BD87
:103910000248784410BD00001E0700001607000092
:103920000808A0F500114FEA3101704743004FEA43
:10393000D30C4FEA3C0C43401FBF40070CF16051D1
:1039400013F0FE4F70471CF0006F03D100200CF005
:10395000004170470CF0004343EA507010B540EA54
:10396000CC0000F0E8F900BF000000924FEA00012F
:10397000FFF7D6BF4FF000414FF00000A1F5002146
:103980007047000090EA010F48BF81F0004100F14C
:103990002482421A3CBF801A89184FEAD0524FF055
:1039A0007F4C1CEA410FA2EBD15318BF9CEA026F77
:1039B00000F03B804FF0004C4CEA00204CEA012123
:1039C00021FA03FC10EB0C0C1ED202F1FF325FEA6D
:1039D0001C2040EBC25038BF70471CF07F0F4FEAED
:1039E000400C18BFBCF17F4F38BF7047C3F12003B4
:1039F000994008BF20F00100BCF17F4F38BF7047ED
:103A0000A0F1C04000F0DDB94FEA3C00000A40EBF5
:103A1000C25028BF1CF0FF0F4FEA400CE6D018BF81
:103A2000BCF17F4F38BF7047EAE79CEA026F05D0D0
:103A300010EA5C0F08BF00F00040704710B500F0BE
:103A40007AF900BF64FBBE3E4FF47F0C1CEAD01233
:103A50001EBF1CEAD11392EA0C0F93EA0C0F00F080
:103A6000858090EA010F48BF42F4807240F4000C58
:103A700041F400002CF07F4120F07F4000B58142EE
:103A8000A2EB03020FF2081CACEB504EC0F1000099
:103A90009EF800E04FEA4E0E00FB0EFC38BF4900D6
:103AA0004FEA2C1C02F5FA020CFB0EF34FEACE1E75
:103AB0004FEA112C4FEAC1210EEB635E42EB22422A
:103AC0000EFB0CFC4FEA1C5300FB03114FEA112CB8
:103AD0004FEA01310EFB0CFC4FEADC4C00FB0C11F1
:103AE000C14228BF09184CEB03335DF804EB10EB1F
:103AF000410143EBC250B2F57C0F38BF704729D566
:103B000012F0F00F1CBF00F1C04000F00040704701
:103B1000008182838485868788898B8C8D8E8F91A6
:103B20009293959697999A9C9D9FA0A2A3A5A7A8CA
:103B3000AAACAEB0B2B3B5B7B9BCBEC0C2C5C7C9F6
:103B4000CCCED1D4D7D9DCDFE2E6E9ECF0F3F7FA5A
:103B5000FE0000004FEA400C0CF1807CBCF17E4F6F
:103B600028BF7047B0F1C04000F02BB990EA010FB8
:103B70000CEAD11348BF42F48072624538BF6345F6
:103B800007D213F47F0F16D080EA010000F0004046
:103B9000704710B500F0CFF8097EFC3E00F005B884
:103BA00080EA010000F00040704780EA010000F068
:103BB000004000F006B912F47F0F04BF02487047BE
:103BC00080EA010000F0FDB80000C07F41000B0E4C
:103BD000D3F19E0208D950F400034FEA032323FADD
:103BE00002F048BF4042704710B500F0A4F800BF93
:103BF00049922480002070476FF0004282EA200042
:103C00007047000010F0004148BF4042B0FA80F316
:103C100010FA03F2C3F19D030BD051EAC35101EB3B
:103C20001220530638BF704700F1010008BF20F092
:103C3000010070474FF47F0C1CEAD0121EBF1CEA33
:103C4000D11392EA0C0F93EA0C0F00F0478090EA30
:103C5000010F48BF42F480724FF0004C4CEA002044
:103C60004CEA012102EB0302A0FB0113A2F50002C2
:103C7000002918BF43F001035B0028BF4FEA33035C
:103C800042EB22425FEA132C4CEBC2502EBFBCEB3E
:103C9000436FB2F57C0F70474FEA036CBCF1004FE5
:103CA00008BF20F00100B2F57C0F38BF70470BD57C
:103CB00082F0FF0212F5803FC8BF704700F1C0409C
:103CC000D8BF00F00040704700F5000C5FEA4C0CD4
:103CD00048BF7047B0F1C04000F073B890EA010FE0
:103CE0000CEAD11348BF42F48072624538BF634585
:103CF00004D280EA010000F00040704710B500F0E7
:103D00001AF800BF8900013E00F007B800F009B8BA
:103D10005FEA410C5FEA1C6C08D080EA010000F009
:103D200050B85FEA400C5FEA1C6CF6D14FF00040DF
:103D3000A0F5800070470EF1020E2EF0030E5EF823
:103D4000044B244204D44FEA4102B2F17F4F11D810
:103D50004FEA4003B3F17F4F0CD80ED14FEAD07C2D
:103D6000B2F17F4F0CEB4C0C0CF1020C08BF4CEB8A
:103D7000D17C04E04FF0080C01E04FEAD17C0CEB61
:103D80004C0324FA03F404F00704B4F1040C06D243
:103D90000EEB840CBDE810404CF0010C6047DFE8EE
:103DA0000CF0070802024FF00040A0F5800010BDA3
:103DB0000846420018BFD2F1807288BF00F0004070
:103DC00010BDFF2141EAD050C005704790EA010FB5
:103DD00048BF81F000413FF5DCAD421A04D882F0C3
:103DE0000042A0EB020011444FEAD0524FF07F4C4A
:103DF0001CEA410FA2EBD15318BF9CEA026F4AD0D4
:103E00004FF0004C4CEA00204CEA012121FA03FC5F
:103E1000B0EB0C0C0FD412F0FE0F36D05FEA4C0062
:103E20001DD5001240EBC25038BF70471CF03F0F49
:103E300018BF70470BE0A2F101025FEA1C2040EBC3
:103E4000C25038BF70471CF07F0F18BF7047C3F1D6
:103E50002003994014BF401E20F0010070478008E5
:103E60004FEA122308BF7047B0FA80FCA2EB0C02A5
:103E7000CCF1280C60FA0CF093EA122F04BF00EB8F
:103E8000C25070474FEAC3707047130A5FEADC10F4
:103E900008BF7047F6E79CEA026F04D010EA5C0F97
:103EA00008BF0020704710B5FFF745FF40DFF63E22
:103EB00081F000407047FCF784BEFCF7B9BF0102F7
:103EC00002030405060708090A0B0C0D0E0F10105B
:103ED00000000000000000000102030406070809BA
:103EE00000000000010203040000000000000000C8
:103EF0003031323334353637383941424344454620
:103F00004030580030313233343536373839616219
:103F1000636465664030780004000008000000001B
:103F20000000000200010000103031323334353619
:103F300037383961626364656678700030313233D6
:103F400034353637383941424344454658500000ED
:103F500002400000000000A000000000054000003A
:103F6000000000C8000000000C4000000000409C61
:103F700000000000194000000020BCBE000000004E
:103F800034400000BFC91B8E00000004B540000093
:103F9000504BCFD06607E2CF010000006C4100001B
:103FA0003E8251AADFEEA73401000000D942000092
:103FB000DCB5A0E23A301F97FFFFFFFFB4450000D9
:103FC000FD25A0C8E9A3C14FFFFFFFFFFF3F000091
:103FD0000000008000000000FF3F000000000080A3
:103FE00000000000304100080000002044000000F4
:103FF000280100087441000844000020B40E0000AD
:10400000440100081C00000043000000F8FFFFFF0F
:104010000C0000000E0000000F0000002E00000049
:104020001001000043000000F8FFFFFF0040404087
:10403000404040404040414141414140404040407B
:104040004040404040404040404040404005020227
:1040500002020202020202020202020202202020E6
:104060002020202020202002020202020202909042
:104070009090909010101010101010101010101040
:104080001010101010101010020202020202888894
:1040900088888888080808080808080808080808A0
:1040A0000808080808080808020202024000000088
:1040B0000000000000000000000000000000000000
:1040C00000000000000000000000000000000000F0
:1040D00000000000000000000000000000000000E0
:1040E00000000000000000000000000000000000D0
:1040F00000000000000000000000000000000000C0
:1041000000000000000000000000000000000000AF
:10411000000000000000000000000000000000009F
:10412000000000000000000000000000000000008F
:10413000000000000000000000000000000000007F
:10414000000000000000000000000000640000000B
:10415000000000000000000000000000000000005F
:10416000000000000100000010000000000000003E
:044170000024F40033
:04000005080000ED02
:00000001FF
